S00B00007267622E73726563DE
S113000046C0000070C000006EC000006CC000005C
S11300106AC0000068C0000066C0000064C0000040
S113002062C0000060C000005EC000005CC0000050
S11300305AC0000058C0000056C0000054C0000060
S113004062C1000050C000004EC000004CC000005F
S11300504AC0000048C0000046C0000044C0000080
S113006042C0000040C000003EC000003CC0000090
S11300703AC0000038C0000036C0000034C00000A0
S113008032C0000030C000002EC00000FA06112467
S11300901FBECFEFD0E4DEBFCDBF21E0A4E0B1E0CE
S11300A001C01D92AB3DB207E1F711E0A0E0B1E061
S11300B0EEEBFFE000E00BBF02C007900D92A4300E
S11300C0B107D9F710E0CEE8D0E000E005C02297F0
S11300D00109FE010BBFB4D6CC38D10780E0080774
S11300E0B1F7B8D46AC78CCFFC0120E03FE32033DA
S11300F008F430832F5F31962033C9F7FC01F09662
S113010020E0203310F4118210822F5F32962033C6
S1130110C1F7FC01E057FF4F108208950F931F931E
S1130120CF93DF938C01559A5D98249A2C983C9A2E
S11301304498569A5E98239A2B983F9A479A479ADE
S11301402B9A4FE151E0C1E0D0E09A01ABEABAEA60
S113015068D696958795969587959C01220F331FAF
S1130160820F931F880F991FFA01E81BF90BCE0128
S113017002C0880F991FEA95E2F7FC019A0151D653
S11301809695879596958795D801A80FB91F8C9158
S1130190E82311F02B9A01C02B982C9A2C984150EB
S11301A0510998F6449A44985E98DF91CF911F9133
S11301B00F9108950F931F93CF93DF93EC01FC01EC
S11301C0E057FF4F8081882309F43FC010824FE33A
S11301D052E001E010E09A01ABEABAEA22D6969521
S11301E0879596958795969587959C01220F331F41
S11301F0820F931F880F991F880F991FFA01E81B1C
S1130200F90BC80102C0880F991FEA95E2F7FC01B7
S11302109A0107D69695879596958795969587958D
S1130220DC015896AA0FBB1FAC0FBD1F2D913C914A
S1130230E223F323EF2B11F02B9A01C02B982C9A75
S11302402C984150510938F602C080E001C081E089
S1130250DF91CF911F910F9108955E9A479B03C040
S1130260479821E001C020E030910401332321F0BC
S113027010920401449A4498222311F02C9A2C9849
S11302805E9898DF80930401089581E0809349018A
S11302902AE431E08AE791E0F9015FE34E2F421B43
S11302A0403308F450833196E817F907B9F78AE424
S11302B091E034DFF894A0E8B0E01C92E1E8F0E0CB
S11302C010821092820010926F008C9180648C9343
S11302D08FE190E090938900809388008081896009
S11302E0808314BC15BCEEE6F0E0108284B5826015
S11302F084BD8FEF87BD85B5856085BD80818260B3
S11303008083789408951F920F920FB60F92112450
S11303100BB60F922F933F934F935F936F937F93FB
S11303208F939F93AF93BF93EF93FF938AE491E0EE
S113033094DFFF91EF91BF91AF919F918F917F9146
S11303406F915F914F913F912F910F900BBE0F9042
S11303500FBE0F901F9018959C01220F331F820F20
S1130360931F9B01220F331F620F731F660F771FAA
S1130370660F771F860F971F803340F4FC01FF2719
S1130380EE0FFF1FE658FE4F11821082E1E0E80FE6
S1130390E03338F4F0E0EE0FFF1FE658FE4F118211
S11303A010828E5F803340F4E82FF0E0EE0FFF1FE1
S11303B0E658FE4F1182108208959C01220F331FCC
S11303C0820F931F9B01220F331F620F731F660F4F
S11303D0771F660F771F860F971F803350F4FC0139
S11303E0FF27EE0FFF1FE658FE4F2FEF3FE031834C
S11303F02083E1E0E80FE03338F4F0E0EE0FFF1F74
S1130400E658FE4F118210828E5F803340F4E82F4D
S1130410F0E0EE0FFF1FE658FE4F118210820895A0
S1130420EF92FF920F931F93CF93DF93882329F0CA
S113043000E010E0E12CF12C20C000E010E0E12C01
S1130440F12C0CC0BE01C80187DF2196C430D10550
S1130450C9F70F5F1F4F0430110591F0CE2DDF2D2A
S1130460F1CFBE01C801A9DF2196C430D105C9F777
S11304700F5F1F4F0430110519F0CE2DDF2DF1CF82
S1130480DF91CF911F910F91FF90EF900895E9E2D2
S1130490F1E029E431E012C016968D919C911797F2
S11304A08115984039F481E090E09093080180939D
S11304B0070108953896E217F30789F0DF01808178
S11304C091818115984079F38281938181159840B7
S11304D051F38481958181159840F1F6E4CF089514
S11304E0E9E2F1E089E491E0118210821382128240
S11304F015821482178216823896E817F907A1F735
S11305000895EF92FF920F931F93CF93DF9320E010
S113051030E060E070E0D0E0C0E003E010E0EE2402
S1130520E394F12C1BC0419151914115510561F0A7
S1130530A081B181AB2B41F451834083DF01129739
S11305401D921C926E2D7F2D0197009761F72F5FEE
S11305503F4F04C02D2F3C2F6D2F7C2F24303105AD
S113056060F4F901EE0FFF1FEE0FFF1FEE0FFF1FE8
S1130570E75DFE4F802F912FD6CF672B59F7DF9180
S1130580CF911F910F91FF90EF9008950F931F93B8
S1130590CF93DF9369E271E0C9E4D1E000E010E0B9
S11305A01BC0219131910196DF01408151812417B3
S11305B0350751F42115310539F0220F331F3183EA
S11305C0208312971D921C928330910551F7685F26
S11305D07F4F6C177D0721F0FB01802F912FE1CF16
S11305E0DF91CF911F910F910895CF92DF92EF92F7
S11305F0FF920F931F93CF93DF9320E030E060E0EE
S113060070E000E010E00F2EF3E0EF2EF02DF12C5F
S1130610CC24C394D12C1AC0428153814115510575
S113062051F0C081D181CD2B31F4518340831382A9
S113063012826C2D7D2D01973297009769F72F5FF9
S11306403F4F04C0202F312F602F712F24303105EC
S113065060F4F901EE0FFF1FEE0FFF1FEE0FFF1FF7
S1130660E35DFE4F8E2D9F2DD7CF672B59F7DF917A
S1130670CF911F910F91FF90EF90DF90CF9008954D
S1130680EF92FF920F931F93CF93DF9369E271E090
S11306900F2EF9E4EF2EF1E0FF2EF02D00E010E034
S11306A01DC0219131910196408151812417350754
S11306B069F42115310551F0AF0142505109220F5F
S11306C0331FEA0139832883118210828330910514
S11306D041F7685F7F4F6E157F0521F0FB01802F86
S11306E0912FDFCFDF91CF911F910F91FF90EF906A
S11306F00895CF92DF92EF92FF920F931F93CF93BF
S1130700DF9320E030E060E070E000E010E00F2EC6
S1130710F3E0EF2EF02DF12CCC24C394D12C1AC08D
S1130720408151814115510551F0C085D185CD2BB2
S113073031F451874087118210826C2D7D2D0197F1
S11307403896009769F72F5F3F4F04C0202F312F51
S1130750602F712F2430310540F4F901EE0FFF1F93
S1130760E75DFE4F8E2D9F2DDBCF672B79F7DF9151
S1130770CF911F910F91FF90EF90DF90CF9008954C
S11307800F931F93CF93DF9369E371E0C1E4D1E04A
S113079003E010E019C02085318501974081518123
S11307A02417350749F42115310531F0220F331F81
S11307B031832083118610863897009761F76E5F26
S11307C07F4F6C177D0721F0FB01802F912FE3CF22
S11307D0DF91CF911F910F910895CF92DF92EF9205
S11307E0FF920F931F93CF93DF9320E030E060E0FC
S11307F070E000E010E00F2EF3E0EF2EF02DF12C6E
S1130800CC24C394D12C1AC040855185411551057F
S113081051F0C081D181CD2B31F4518340831186B5
S113082010866C2D7D2D01973897009769F72F5FFF
S11308303F4F04C0202F312F602F712F24303105FA
S113084040F4F901EE0FFF1FE75CFE4F8E2D9F2D44
S1130850DBCF672B79F7DF91CF911F910F91FF9039
S1130860EF90DF90CF9008950F931F93CF93DF9372
S113087069E271E0C1E3D1E000E010E01AC0208138
S113088031810196408551852417350749F4211596
S1130890310531F0220F331F3183208311861086F6
S11308A038968330910559F76E5F7F4F6C177D073B
S11308B021F0FB01802F912FE2CFDF91CF911F9187
S11308C00F91089592DEDCDE90CE089586DFCCDFB2
S11308D084CF08950EDF54DF0CCF089512DE56DE68
S11308E010CE08956F927F928F929F92AF92BF9293
S11308F0CF92DF92EF92FF920F931F93CF93DF93E8
S1130900CDB7DEB7ADB6BEB6A9E4B1E069E271E039
S113091040E050E004E010E00EC021913191232B1F
S113092011F44F5F5F4F01970097B9F7685F7F4FEE
S11309306A177B0721F0FB01802F912FEECF440F24
S1130940551F6DB77EB7641B750B0FB6F8947EBF49
S11309500FBE6DBF8DB79EB701967C016C010F2E43
S1130960F9E26F2EF1E07F2EF02D40E050E000E040
S113097010E0812C912C1DC0BC01640F751F2191C6
S11309803191232B51F49801220F331F2C0D3D1D5F
S1130990D9016D937C930F5F1F4F019684309105AD
S11309A059F74C5F5F4FB8E06B0E711C4031510535
S11309B021F0F301882D992DDFCFA3D2B8011ED2E7
S11309C0880F991FF701E80FF91F20813181253025
S11309D03105D4F0C901049785309105E4F7A901E4
S11309E04450510925503109C9019695879596952A
S11309F087959C01220F331F220F331FBA01621BFC
S1130A00730B9B01019602C080E090E0FC01EE0FA5
S1130A10FF1FEE0FFF1F2E0F3F1FF901EE0FFF1FE9
S1130A20E75DFE4F82E090E0918380830FB6F894F7
S1130A30BEBE0FBEADBEDF91CF911F910F91FF904F
S1130A40EF90DF90CF90BF90AF909F908F907F906A
S1130A506F90089511B88FEF82B940B130B13095DD
S1130A60327090B19095947020B12095287080B127
S1130A708095807140FF1FC031111DC021111BC022
S1130A80911119C0811117C040B130B13095327045
S1130A9090B19095947020B12095287080B1809584
S1130AA0807140FF08C0311106C0211104C09111AA
S1130AB002C0882349F32FE38DE093E02150804066
S1130AC09040E1F700C00000E0DB0ADD0BDF0ADF45
S1130AD081E0A6DCCC24C3940F2EF9E2AF2EF1E022
S1130AE0BF2EF02D712C612C6894992492F8812CDE
S1130AF033243394212C83ED90E30197F1F700C064
S1130B00000010B11C25117080B18095C82FC270EF
S1130B1000B10095047080B18095D82FD87080B151
S1130B2080958071D82E83ED90E30197F1F700C092
S1130B300000D501672D762D10C041915191452BB0
S1130B4011F46F5F7F4F2150310921153105A9F749
S1130B50189691E0A934B90721F0FD01292D382D0B
S1130B60ECCF672B59F4D11009C080E059DC80B177
S1130B708095282F2071D22E84FFF7CF112309F4FA
S1130B803BC0C111F2C0D111F0C00111EEC0D110AF
S1130B90ECC09CDE4090050150900601472D562D77
S1130BA013C0219131918D919D912817390711F02E
S1130BB0432C522C615071096115710591F7485FFE
S1130BC05F4F4032510549F0DA01A75FBE4FF5018E
S1130BD0E40FF51F692D782DE4CF50920601409261
S1130BE005014A94452829F47DDE7092050160923E
S1130BF006018C2D15DCB9C0CC2309F439C0D11100
S1130C00B4C00111B2C0D110B0C064DE409005017F
S1130C1050900601472D562D13C0219131918D918D
S1130C209D912817390711F0432C522C61507109FA
S1130C306115710591F7485F5F4F4032510549F0E6
S1130C40DA01A75FBE4FF501E40FF51F692D782D7A
S1130C50E4CF50920601409205014A94452829F4B4
S1130C6041DE70920501609206018C2DD9DB7DC0B6
S1130C70DD23B9F1011179C0D11077C02FDE409086
S1130C80050150900601472D562D13C02191319135
S1130C908D919D912817390711F0432C522C6150E6
S1130CA071096115710591F7485F5F4F4032510535
S1130CB049F0DA01A75FBE4FF501E40FF51F692D76
S1130CC0782DE4CF50920601409205014A944528BC
S1130CD029F408DE70920501609206018C2DA0DBD8
S1130CE044C00023A9F1D11040C0ECDD40900501BF
S1130CF050900601472D562D13C0219131918D91AD
S1130D009D912817390711F0432C522C6150710919
S1130D106115710591F7485F5F4F4032510549F005
S1130D20DA01A75FBE4FF501E40FF51F692D782D99
S1130D30E4CF50920601409205014A94452829F4D3
S1130D40D1DD70920501609206018C2D69DB0DC026
S1130D50DD2059F0C5DBC6DDC5DD8C2D61DB83EDFF
S1130D6090E30197F1F700C0000083ED90E3019751
S1130D70F1F700C0000015C010B11C251170E0B0DF
S1130D808E2D8095C82FC27000B100950470F0B00C
S1130D908F2D8095D82FD870D0B08D2D80958071EF
S1130DA0D82E1111E9CF0111E7CFD111E5CFC1112F
S1130DB0E3CFD110E1CF6BDB809107019091080163
S1130DC0019789F470920701609208018C2D28DB49
S1130DD09FEB27E289E0915020408040E1F700C07A
S1130DE000000499F3CF83ED90E30197F1F700C07D
S1130DF0000081CE8AE491E077C9089597FB072E1D
S1130E0016F4009406D077FD08D01ED007FC05D058
S1130E103EF4909581959F4F0895709561957F4F0D
S1130E200895A29FB001B39FC001A39F700D811DBF
S1130E301124911DB29F700D811D1124911D0895DF
S1130E400790F691E02D0994AA1BBB1B51E107C042
S1130E50AA1FBB1FA617B70710F0A61BB70B881F46
S1130E60991F5A95A9F780959095BC01CD010895D5
S1130E708F929F92AF92BF92CF92DF92EF92FF92A6
S1130E80CF93DF93EC01688179818A819B8161151D
S1130E9071058105910521F464E279ED8BE597E014
S1130EA02DE133EF41E050E03AD049015A019B0172
S1130EB0AC01A7EAB1E44FD06B017C01ACEEB4EF16
S1130EC0A501940154D0C60ED71EE81EF91EF7FEE4
S1130ED006C081E0C81AD108E10880E8F80AC8828F
S1130EE0D982EA82FB82C6019F77DF91CF91FF907E
S1130EF0EF90DF90CF90BF90AF909F908F90089528
S1130F00B7CF80E091E0B4CFA0E0B0E080930001DF
S1130F1090930101A0930201B09303010895052E5B
S1130F2097FB16F400940FD057FD05D024D007FC8E
S1130F3002D046F408C050954095309521953F4F16
S1130F404F4F5F4F089590958095709561957F4FB1
S1130F508F4F9F4F089565DFA59F900DB49F900D0F
S1130F60A49F800D911D11240895B7FFF4CFF3DFE2
S1130F70821B930B0895A1E21A2EAA1BBB1BFD0131
S1130F800DC0AA1FBB1FEE1FFF1FA217B307E40764
S1130F90F50720F0A21BB30BE40BF50B661F771FBC
S1130FA0881F991F1A9469F760957095809590959C
S1110FB09B01AC01BD01CF010895F894FFCF61
S1070FBE010000002A
S9030000FC
